{
  "contractName": "Greeter",
  "abi": [
    {
      "inputs": [
        {
          "name": "simple",
          "type": "address"
        }
      ],
      "payable": false,
      "stateMutability": "nonpayable",
      "type": "constructor"
    },
    {
      "constant": false,
      "inputs": [],
      "name": "greet",
      "outputs": [
        {
          "name": "",
          "type": "bytes32"
        }
      ],
      "payable": false,
      "stateMutability": "nonpayable",
      "type": "function"
    }
  ],
  "bytecode": "0x6060604052341561000f57600080fd5b6040516020806101c083398101604052808051906020019091905050806000806101000a81548173ffffffffffffffffffffffffffffffffffffffff021916908373ffffffffffffffffffffffffffffffffffffffff160217905550506101458061007b6000396000f300606060405260043610610041576000357c0100000000000000000000000000000000000000000000000000000000900463ffffffff168063cfae321714610046575b600080fd5b341561005157600080fd5b610059610077565b60405180826000191660001916815260200191505060405180910390f35b60008060009054906101000a900473ffffffffffffffffffffffffffffffffffffffff1673ffffffffffffffffffffffffffffffffffffffff1663ef5fb05b6040518163ffffffff167c0100000000000000000000000000000000000000000000000000000000028152600401602060405180830381600087803b15156100fd57600080fd5b5af1151561010a57600080fd5b505050604051805190509050905600a165627a7a72305820e05f78094b1fa10bf1468e77890c4b873310409e057f6dcb64b822489be6df520029",
  "source": "pragma solidity ^0.4.21;\n\nimport \"./SimpleContract.sol\";\n\n\ncontract Greeter {\n\n    SimpleContract private _simple;\n\n    function Greeter(SimpleContract simple) public {\n        _simple = simple;\n    }\n\n    function greet() public returns (bytes32) {\n        return _simple.sayHello();\n    }\n\n}\n",
  "sourcePath": "/Users/mjr/Documents/Projects/SimpleContract/contracts/Greeter.sol",
  "compiler": {
    "name": "solc",
    "version": "0.4.21+commit.dfe3193c.Emscripten.clang"
  },
  "schemaVersion": "2.0.0",
  "updatedAt": "2018-04-27T13:32:49.798Z"
}