{
  "contractName": "SimpleContract",
  "abi": [
    {
      "constant": true,
      "inputs": [],
      "name": "sayHello",
      "outputs": [
        {
          "name": "",
          "type": "bytes32"
        }
      ],
      "payable": false,
      "stateMutability": "pure",
      "type": "function"
    }
  ],
  "bytecode": "0x6060604052341561000f57600080fd5b60c68061001d6000396000f300606060405260043610603f576000357c0100000000000000000000000000000000000000000000000000000000900463ffffffff168063ef5fb05b146044575b600080fd5b3415604e57600080fd5b60546072565b60405180826000191660001916815260200191505060405180910390f35b60007f48656c6c6f0000000000000000000000000000000000000000000000000000009050905600a165627a7a7230582001499b2bb6a0ed9c6a03904bbf30bfc9c7540b3b85cc940937946e94f52c184a0029",
  "source": "pragma solidity 0.4.21;\n\n\ncontract SimpleContract {\n\n    function sayHello() public pure returns (bytes32) {\n        return \"Hello\";\n    }\n\n}\n",
  "sourcePath": "/Users/mjr/Documents/Projects/SimpleContract/contracts/SimpleContract.sol",
  "compiler": {
    "name": "solc",
    "version": "0.4.21+commit.dfe3193c.Emscripten.clang"
  },
  "schemaVersion": "2.0.0",
  "updatedAt": "2018-04-27T10:23:34.110Z"
}